:020000040800F2
:1000000000280020ED0F00087D0F0008830F000876
:10001000890F00088F0F0008950F000800000000EE
:100020000000000000000000000000009B0F00081E
:10003000A70F000800000000B30F0008BF0F000862
:10004000351000083510000835100008351000087C
:10005000351000083510000835100008351000086C
:10006000351000083510000835100008351000085C
:10007000351000083510000835100008351000084C
:10008000351000083510000835100008351000083C
:10009000351000083510000835100008351000082C
:1000A000351000083510000835100008351000081C
:1000B000CD0F0008351000080000000035100008C2
:1000C0003510000800000000000000003510000896
:1000D0000000000035100008351000080000000086
:1000E0003510000835100008351000080000000029
:1000F0000000000000000000000000000000000000
:0C01000000000000000000005FF808F1A3
:10010C0010B5054C237833B9044B13B10448AFF345
:10011C0000800123237010BD60000020000000004F
:10012C005026000808B5034B1BB103490348AFF335
:10013C00008008BD0000000064000020502600086C
:10014C0080B582B000AF786001220121854801F0B2
:10015C0057FA01220221834801F052FA01220421AC
:10016C00804801F04DFA012208217E4801F048FA3E
:10017C00012210217B4801F043FA01222021794809
:10018C0001F03EFA01224021764801F039FA7B68F1
:10019C00002B18D10121734801F04AFA0221714851
:1001AC0001F046FA04216F4801F042FA08216D482B
:1001BC0001F03EFA10216B4801F03AFA202169480F
:1001CC0001F036FACAE07B68012B08D102216548A0
:1001DC0001F02EFA0421634801F02AFABEE07B6894
:1001EC00022B14D101215F4801F022FA02215D4853
:1001FC0001F01EFA08215B4801F01AFA1021594847
:10020C0001F016FA4021574801F012FAA6E07B687B
:10021C00032B14D10121534801F00AFA0221514851
:10022C0001F006FA04214F4801F002FA08214D486A
:10023C0001F0FEF940214B4801F0FAF98EE07B68A1
:10024C00042B10D10221474801F0F2F90421454852
:10025C0001F0EEF92021434801F0EAF94021414830
:10026C0001F0E6F97AE07B68052B14D101213D48B9
:10027C0001F0DEF904213B4801F0DAF90821394894
:10028C0001F0D6F92021374801F0D2F94021354848
:10029C0001F0CEF962E07B68062B18D101213148C0
:1002AC0001F0C6F904212F4801F0C2F908212D48AC
:1002BC0001F0BEF910212B4801F0BAF92021294890
:1002CC0001F0B6F94021274801F0B2F946E07B680D
:1002DC00072B0CD10121234801F0AAF90221214856
:1002EC0001F0A6F904211F4801F0A2F936E07B6861
:1002FC00082B1CD101211B4801F09AF90221194845
:10030C0001F096F90421174801F092F908211548DB
:10031C0001F08EF91021134801F08AF920211148BF
:10032C0001F086F940210F4801F082F916E07B6854
:10033C00092B13D101210B4801F07AF9022109484C
:10034C0001F076F90421074801F072F920210548E3
:10035C0001F06EF94021034801F06AF900BF08373B
:10036C00BD4680BD000C014080B582B000AF786006
:10037C0001224FF480719F4801F042F901224FF4A1
:10038C0000719C4801F03CF901224FF480619948BE
:10039C0001F036F901224FF40061964801F030F972
:1003AC0001224FF48051934801F02AF901224FF4B5
:1003BC000051904801F024F901224FF480418D48FE
:1003CC0001F01EF901224FF400418A4801F018F99E
:1003DC007B6803331B78303B362B00F2228101A261
:1003EC0052F823F02F060008CD040008D9040008A9
:1003FC00E5040008FB040008070500081D050008BB
:10040C0033050008530500085F0500082F06000897
:10041C002F0600082F0600082F0600082F060008DC
:10042C002F0600082F060008750500088B0500082C
:10043C00AB050008C1050008E10500080506000829
:10044C002F0600082F0600082F0600082F060008AC
:10045C002F0600082F0600082F0600082F0600089C
:10046C002F0600082F0600082F0600082F0600088C
:10047C002F0600082F0600082F0600082F0600087C
:10048C002F0600082F0600082F0600082F0600086C
:10049C002F0600082F0600082F0600082F0600085C
:1004AC002F0600082F060008750500088B050008AC
:1004BC00AB050008C1050008E105000805060008A9
:1004CC004FF400414B4801F0B3F8AAE04FF48041DF
:1004DC00484801F0ADF8A4E04FF48041454801F0E4
:1004EC00A7F84FF40041434801F0A2F899E04FF40B
:1004FC000051404801F09CF893E04FF400513D4806
:10050C0001F096F84FF400413A4801F091F888E078
:10051C004FF40051374801F08BF84FF480413548C7
:10052C0001F086F87DE04FF40051324801F080F87C
:10053C004FF480412F4801F07BF84FF400412D48D7
:10054C0001F076F86DE04FF480512A4801F070F814
:10055C0067E04FF48051274801F06AF84FF40041EE
:10056C00244801F065F85CE04FF48051214801F01B
:10057C005FF84FF480411F4801F05AF851E04FF4F6
:10058C0080511C4801F054F84FF48041194801F097
:10059C004FF84FF40041174801F04AF841E04FF48E
:1005AC008051144801F044F84FF40051114801F007
:1005BC003FF836E04FF480510E4801F039F84FF413
:1005CC0000510C4801F034F84FF40041094801F097
:1005DC002FF826E04FF48051064801F029F84FF42B
:1005EC000051044801F024F84FF48041014801F017
:1005FC001FF816E0000C01404FF480519F4801F0A9
:10060C0017F84FF400519D4801F012F84FF4804157
:10061C009A4801F00DF84FF40041984801F008F8A1
:10062C0000BF7B6802331B78303B362B00F22281F3
:10063C0001A252F823F000BF7F0800082107000830
:10064C002D070008390700084F0700085B07000852
:10065C007107000887070008A7070008B307000800
:10066C00810800088108000881080008810800083A
:10067C00810800088108000881080008C9070008E3
:10068C00DF070008FF0700081508000835080008F8
:10069C005508000881080008810800088108000836
:1006AC0081080008810800088108000881080008FA
:1006BC0081080008810800088108000881080008EA
:1006CC0081080008810800088108000881080008DA
:1006DC0081080008810800088108000881080008CA
:1006EC0081080008810800088108000881080008BA
:1006FC00810800088108000881080008C907000863
:10070C00DF070008FF070008150800083508000877
:10071C00550800084FF40061584800F089FFA9E023
:10072C004FF48061554800F083FFA3E04FF48061E3
:10073C00524800F07DFF4FF40061504800F078FF04
:10074C0098E04FF400714D4800F072FF92E04FF4C6
:10075C0000714A4800F06CFF4FF40061474800F00C
:10076C0067FF87E04FF40071444800F061FF4FF4DD
:10077C008061424800F05CFF7CE04FF400713F4820
:10078C0000F056FF4FF480613C4800F051FF4FF4ED
:10079C0000613A4800F04CFF6CE04FF48071374830
:1007AC0000F046FF66E04FF48071344800F040FFE3
:1007BC004FF40061314800F03BFF5BE04FF4807177
:1007CC002E4800F035FF4FF480612C4800F030FFCC
:1007DC0050E04FF48071294800F02AFF4FF48061FB
:1007EC00264800F025FF4FF40061244800F020FF5C
:1007FC0040E04FF48071214800F01AFF4FF4007173
:10080C001E4800F015FF35E04FF480711B4800F0D6
:10081C000FFF4FF40071194800F00AFF4FF400610C
:10082C00164800F005FF25E04FF48071134800F0E6
:10083C00FFFE4FF40071114800F0FAFE4FF4806196
:10084C000E4800F0F5FE15E04FF480710B4800F0F7
:10085C00EFFE4FF40071094800F0EAFE4FF480619E
:10086C00064800F0E5FE4FF40061044800F0E0FE9D
:10087C0000E000BF00BF0837BD4680BD000C014042
:10088C0080B582B000AF78607B68DB00044A13440B
:10089C001846FFF769FD00BF0837BD4680BD00BF95
:1008AC000000002080B582B000AF78607B68032B1D
:1008BC0022D801A252F823F0D5080008E10800085C
:1008CC00ED080008F90800080E4B1B681846FFF7E6
:1008DC0037FC12E00B4B5B681846FFF731FC0CE061
:1008EC00084B9B681846FFF72BFC06E0054BDB68B2
:1008FC001846FFF725FC00E000BF00BF0837BD46D7
:10090C0080BD00BF4000002080B483B000AF786091
:10091C0039607B68184A82FB03129210DB17D31ADA
:10092C00164A13607968144B83FB01239A10CB177A
:10093C00D21A13469B0013445B00CA1A0F4B5A6021
:10094C003B680D4A82FB03129210DB17D31A0B4A39
:10095C0093603968084B83FB01239A10CB17D21A8A
:10096C0013469B0013445B00CA1A044BDA6000BFA9
:10097C000C37BD4680BC7047676666664000002039
:10098C0080B483B000AF7860074B1B687A6892FB29
:10099C00F3F3064A1360064B00221A6000BF0C37B3
:1009AC00BD4680BC704700BF500000207C0000207A
:1009BC008000002080B400AF094B1B68002B0BDDBE
:1009CC00074B1B68013B064A1360054B1B68002B49
:1009DC0002D1044B01221A6000BFBD4680BC704797
:1009EC007C0000208000002080B586B000AF00F0B5
:1009FC001DFB00F079F900F0FFF900F0B1F900F0FF
:100A0C00FBF900F0ADF90F237B6108233B61322326
:100A1C00FB6001220121B04800F0F2FD012202210D
:100A2C00AD4800F0EDFD01220421AB4800F0E8FDDB
:100A3C0001220821A84800F0E3FD01221021A6485C
:100A4C0000F0DEFD01222021A34800F0D9FD012297
:100A5C004021A14800F0D4FD012240219F4800F024
:100A6C00CFFD012280219D4800F0CAFD01224FF4E8
:100A7C0080719A4800F0C4FD01224FF40071974830
:100A8C0000F0BEFD6420FFF77BFF0023BB6000235A
:100A9C007B60934801F012FA924B1B68012BFBD13F
:100AAC00012240218D4800F0ABFD012280218B48B2
:100ABC0000F0A6FD01224FF48071884800F0A0FDE3
:100ACC0001224FF40071854800F09AFDBB68002BA1
:100ADC000CD14021814800F0ABFDB868FFF7E2FE75
:100AEC000123BB60FA20FFF74BFF30E0BB68012B02
:100AFC000CD18021794800F09BFDB868FFF7D2FE3D
:100B0C000223BB60FA20FFF73BFF20E0BB68022BFF
:100B1C000DD14FF48071714800F08AFDB868FFF771
:100B2C00C1FE0323BB60FA20FFF72AFF0FE0BB686E
:100B3C00032B0CD14FF40071684800F079FDB868B4
:100B4C00FFF7B0FE0023BB60FA20FFF719FFBB686C
:100B5C00032B23D1FB680133FB60FB683B2B04DDCB
:100B6C000023FB603B6901333B613B693B2B04DD9C
:100B7C0000233B617B6901337B617B69172B01DDB2
:100B8C0000237B6139697869FFF7BEFE2021534849
:100B9C0000F04EFD1021514800F04AFD01220421C5
:100BAC004E4800F02DFD012208214C4800F028FD94
:100BBC0001224FF48061494800F022FD01224FF4DC
:100BCC000061464800F01CFD01224FF4805143485F
:100BDC0000F016FD01224FF40051404800F010FDCA
:100BEC0001224FF480413D4800F00AFD01224FF4F0
:100BFC0000413A4800F004FD7B68002B09D1042128
:100C0C00364800F015FD7868FFF73AFE01237B604B
:100C1C0042E77B68012B09D10821304800F008FD20
:100C2C007868FFF72DFE02237B6035E77B68022B8B
:100C3C000AD14FF48061294800F0FAFC7868FFF77C
:100C4C001FFE03237B6027E77B68032B0AD14FF43D
:100C5C000061224800F0ECFC7868FFF711FE0423D9
:100C6C007B6019E77B68042B0AD14FF480511B4839
:100C7C0000F0DEFC7868FFF703FE05237B600BE7D2
:100C8C007B68052B0AD14FF40051144800F0D0FCBE
:100C9C007868FFF7F5FD06237B60FDE67B68062B85
:100CAC000AD14FF480410D4800F0C2FC7868FFF780
:100CBC00E7FD07237B60EFE67B68072B7FF4ECAE48
:100CCC004FF40041054800F0B3FC7868FFF7D8FDFD
:100CDC0000237B60E0E600BF000C014000080140EF
:100CEC00840000208000002080B590B000AF07F198
:100CFC00180328220021184601F09CFC3B1D002201
:100D0C001A605A609A60DA601A610223BB6101238F
:100D1C00BB621023FB6200237B6307F118031846A8
:100D2C0000F0A0FC0346002B01D000F0C5F80F2307
:100D3C007B600023BB600023FB6000233B6100232E
:100D4C007B613B1D0021184600F00CFF0346002B75
:100D5C0001D000F0B1F800BF4037BD4680BD0000A7
:100D6C0080B586B000AF07F1080300221A605A6004
:100D7C009A60DA603B4600221A605A601D4B4FF0B5
:100D8C0080421A601B4B41F63F725A60194B00228D
:100D9C009A60184B0922DA60164B00221A61154B27
:100DAC0000229A61134801F039F80346002B01D058
:100DBC0000F082F84FF48053BB6007F1080319462A
:100DCC000C4801F0CFF90346002B01D000F074F869
:100DDC0000233B6000237B603B461946054801F02D
:100DEC009BFB0346002B01D000F066F800BF1837C0
:100DFC00BD4680BD8400002080B586B000AF07F1F1
:100E0C00080300221A605A609A60DA60224B9B69D0
:100E1C00214A43F0040393611F4B9B6903F00403C5
:100E2C007B607B681C4B9B691B4A43F008039361F6
:100E3C00194B9B6903F008033B603B6800224FF69B
:100E4C00FC71164800F0DCFB00224FF67F71144851
:100E5C0000F0D6FB4FF6FC73BB600123FB60002354
:100E6C003B6102237B6107F1080319460B4800F034
:100E7C004DFA4FF67F73BB600123FB6000233B618F
:100E8C0002237B6107F108031946054800F03EFA7E
:100E9C0000BF1837BD4680BD00100240000801405D
:100EAC00000C014080B582B000AF7860FFF782FD86
:100EBC0000BF0837BD4680BD80B400AF72B600BF1E
:100ECC00FEE7000080B485B000AF154B9B69144A57
:100EDC0043F001039361124B9B6903F00103BB6068
:100EEC00BB680F4BDB690E4A43F08053D3610C4B4C
:100EFC00DB6903F080537B607B680A4B5B68FB60AB
:100F0C00FB6823F0E063FB60FB6843F08063FB60ED
:100F1C00044AFB68536000BF1437BD4680BC704761
:100F2C00001002400000014080B584B000AF786032
:100F3C007B681B68B3F1804F13D10C4BDB690B4AF8
:100F4C0043F00103D361094BDB6903F00103FB6040
:100F5C00FB68002200211C2000F0A1F91C2000F0ED
:100F6C00BAF900BF1037BD4680BD00BF001002406B
:100F7C0080B400AFFEE780B400AFFEE780B400AFF2
:100F8C00FEE780B400AFFEE780B400AFFEE780B4AC
:100F9C0000AF00BFBD4680BC704780B400AF00BF3F
:100FAC00BD4680BC704780B400AF00BFBD4680BC5E
:100FBC00704780B500AF00F07FF800BF80BD000027
:100FCC0080B500AF024800F0C5FF00BF80BD00BF78
:100FDC008400002080B400AF00BFBD4680BC7047C9
:100FEC00FFF7F8FF0B480C490C4A002302E0D458D9
:100FFC00C4500433C4188C42F9D3094A094C002359
:10100C0001E013600432A242FBD301F0EFFAFFF7C8
:10101C00EBFC7047000000206000002094260008C4
:10102C0060000020D0000020FEE7000080B500AF7B
:10103C00084B1B68074A43F010031360032000F0B1
:10104C0023F90F2000F008F8FFF73CFF00231846A7
:10105C0080BD00BF0020024080B582B000AF786038
:10106C00124B1A68124B1B7819464FF47A73B3FB68
:10107C00F1F3B2FBF3F3184600F03BF90346002BF7
:10108C0001D001230EE07B680F2B0AD8002279686F
:10109C004FF0FF3000F003F9064A7B681360002321
:1010AC0000E0012318460837BD4680BD54000020DF
:1010BC005C0000205800002080B400AF054B1B786A
:1010CC001A46054B1B681344034A136000BFBD4608
:1010DC0080BC70475C000020CC00002080B400AFC6
:1010EC00024B1B681846BD4680BC7047CC000020E4
:1010FC0080B485B000AF78607B6803F00703FB60B9
:10110C000C4BDB68BB60BA684FF6FF031340BB6047
:10111C00FB681A02BB68134343F0BF6343F400330C
:10112C00BB60044ABB68D36000BF1437BD4680BCAB
:10113C00704700BF00ED00E080B400AF044BDB68EB
:10114C001B0A03F007031846BD4680BC704700BF5E
:10115C0000ED00E080B483B000AF0346FB7197F95B
:10116C000730002B0BDBFB7903F01F02064997F9C4
:10117C0007305B09012000FA02F241F8232000BF7E
:10118C000C37BD4680BC704700E100E080B483B0F2
:10119C0000AF03463960FB7197F90730002B0ADB6F
:1011AC003B68DAB20C4997F907301201D2B20B4402
:1011BC0083F800230AE03B68DAB20849FB7903F0B4
:1011CC000F03043B1201D2B20B441A7600BF0C374A
:1011DC00BD4680BC704700BF00E100E000ED00E0C0
:1011EC0080B489B000AFF860B9607A60FB6803F036
:1011FC000703FB61FB69C3F10703042B28BF04231E
:10120C00BB61FB690433062B02D9FB69033B00E08D
:10121C0000237B614FF0FF32BB6902FA03F3DA4320
:10122C00BB681A407B699A404FF0FF317B6901FA29
:10123C0003F3D9437B680B40134318462437BD4650
:10124C0080BC704780B582B000AF78607B68013B92
:10125C00B3F1807F01D301230FE00A4A7B68013B85
:10126C0053600F214FF0FF30FFF790FF054B00222A
:10127C009A60044B07221A60002318460837BD46B3
:10128C0080BD00BF10E000E080B582B000AF786098
:10129C007868FFF72DFF00BF0837BD4680BD80B5CD
:1012AC0086B000AF0346B9607A60FB7300237B61A4
:1012BC00FFF742FF78617A68B9687869FFF790FFA9
:1012CC00024697F90F3011461846FFF75FFF00BF33
:1012DC001837BD4680BD80B582B000AF0346FB71A8
:1012EC0097F907301846FFF735FF00BF0837BD46A2
:1012FC0080BD80B582B000AF78607868FFF7A2FF40
:10130C00034618460837BD4680BD000080B48BB03C
:10131C0000AF7860396000237B6200233B6248E1B8
:10132C0001227B6A02FA03F3FB613B681B68FA69D2
:10133C001340BB61BA69FB699A4240F037813B6844
:10134C005B68A34A93425ED0A14A934275D8A14AE6
:10135C00934258D09F4A93426FD89F4A934252D09F
:10136C009D4A934269D89D4A93424CD09B4A9342E2
:10137C0063D89B4A934246D0994A93425DD8122B2C
:10138C002AD8122B59D801A252F823F013140008B2
:10139C00ED130008FF13000841140008471400085F
:1013AC0047140008471400084714000847140008A5
:1013BC004714000847140008471400084714000895
:1013CC004714000847140008471400084714000885
:1013DC00F513000809140008824A934213D02CE03C
:1013EC003B68DB683B6229E03B68DB6804333B62AB
:1013FC0024E03B68DB6808333B621FE03B68DB683A
:10140C000C333B621AE03B689B68002B02D104232F
:10141C003B6213E03B689B68012B05D108233B62C0
:10142C007B68FA691A6109E008233B627B68FA69F8
:10143C005A6103E000233B6200E000BFBB69FF2B55
:10144C0001D87B6801E07B6804337B61BB69FF2BAF
:10145C0002D87B6A9B0002E07B6A083B9B003B61E5
:10146C007B691A680F213B6901FA03F3DB431A40CD
:10147C00396A3B6901FA03F31A437B691A603B68CA
:10148C005B6803F08053002B00F09080564B9B69F7
:10149C00554A43F001039361534B9B6903F00103DD
:1014AC00BB60BB68514A7B6A9B08023352F82330FD
:1014BC00FB607B6A03F003039B000F2202FA03F329
:1014CC00DB43FA681340FB607B68494A93420DD0BA
:1014DC007B68484A934207D07B68474A934201D1C4
:1014EC00022304E0032302E0012300E000237A6AD4
:1014FC0002F0030292009340FA681343FB603B49ED
:10150C007B6A9B080233FA6841F823203B685B68CE
:10151C0003F48013002B06D0384B9A683749BB690B
:10152C0013438B6006E0354B9A68BB69DB43334948
:10153C0013408B603B685B6803F40013002B06D0F0
:10154C002E4BDA682D49BB691343CB6006E02B4B5D
:10155C00DA68BB69DB4329491340CB603B685B68A5
:10156C0003F40033002B06D0244B5A682349BB6983
:10157C0013434B6006E0214B5A68BB69DB431F49A0
:10158C0013404B603B685B6803F48033002B06D040
:10159C001A4B1A681949BB6913430B6006E0174BC9
:1015AC001A68BB69DB43154913400B607B6A013336
:1015BC007B623B681A687B6A22FA03F3002B7FF488
:1015CC00AFAE00BF00BF2C37BD4680BC704700BF1C
:1015DC000000321000003110000022100000211019
:1015EC000000121000001110001002400000014019
:1015FC0000080140000C01400010014000040140B3
:10160C0080B483B000AF78600B467B8013467B7050
:10161C007B78002B03D07A887B681A6103E07B8887
:10162C001A047B681A6100BF0C37BD4680BC70473A
:10163C0080B485B000AF78600B467B807B68DB683C
:10164C00FB607A88FB6813401A04FB68D9437B88DB
:10165C000B401A437B681A6100BF1437BD4680BC2F
:10166C007047000080B586B000AF78607B68002BB7
:10167C0001D101236CE27B681B6803F00103002B92
:10168C0000F08780924B5B6803F00C03042B0CD0AA
:10169C008F4B5B6803F00C03082B12D18C4B5B68EF
:1016AC0003F48033B3F5803F0BD1894B1B6803F4F3
:1016BC000033002B6CD07B685B68002B68D1012356
:1016CC0046E27B685B68B3F5803F06D1804B1B68B4
:1016DC007F4A43F4803313602EE07B685B68002BF9
:1016EC000CD17B4B1B687A4A23F480331360784B04
:1016FC001B68774A23F4802313601DE07B685B68CA
:10170C00B3F5A02F0CD1724B1B68714A43F48023A4
:10171C0013606F4B1B686E4A43F4803313600BE00D
:10172C006B4B1B686A4A23F480331360684B1B684D
:10173C00674A23F4802313607B685B68002B13D00B
:10174C00FFF7CCFC386108E0FFF7C8FC02463B69A8
:10175C00D31A642B01D90323FAE15D4B1B6803F404
:10176C000033002BF0D014E0FFF7B8FC386108E030
:10177C00FFF7B4FC02463B69D31A642B01D903234F
:10178C00E6E1534B1B6803F40033002BF0D100E06F
:10179C0000BF7B681B6803F00203002B63D04C4B2B
:1017AC005B6803F00C03002B0BD0494B5B6803F018
:1017BC000C03082B1CD1464B5B6803F48033002BC5
:1017CC0016D1434B1B6803F00203002B05D07B683A
:1017DC001B69012B01D00123BAE13D4B1B6823F09F
:1017EC00F8027B685B69DB00394913430B603AE014
:1017FC007B681B69002B20D0364B01221A60FFF747
:10180C006DFC386108E0FFF769FC02463B69D31AAE
:10181C00022B01D903239BE12D4B1B6803F0020320
:10182C00002BF0D02A4B1B6823F0F8027B685B6915
:10183C00DB00274913430B6015E0264B00221A608E
:10184C00FFF74CFC386108E0FFF748FC02463B69A7
:10185C00D31A022B01D903237AE11D4B1B6803F029
:10186C000203002BF0D17B681B6803F00803002BEC
:10187C003AD07B689B69002B19D0174B01221A6058
:10188C00FFF72CFC386108E0FFF728FC02463B69A7
:10189C00D31A022B01D903235AE10D4B5B6A03F0D7
:1018AC000203002BF0D0012000F09AFA1CE00A4B46
:1018BC0000221A60FFF712FC38610FE0FFF70EFCF4
:1018CC0002463B69D31A022B08D9032340E100BF1F
:1018DC000010024000004242800442429E4B5B6A70
:1018EC0003F00203002BE9D17B681B6803F00403AF
:1018FC00002B00F0A6800023FB75974BDB6903F0EF
:10190C008053002B0DD1944BDB69934A43F08053E9
:10191C00D361914BDB6903F08053BB60BB6801233F
:10192C00FB758E4B1B6803F48073002B18D18B4B0B
:10193C001B688A4A43F480731360FFF7CFFB38614E
:10194C0008E0FFF7CBFB02463B69D31A642B01D9A5
:10195C000323FDE0814B1B6803F48073002BF0D054
:10196C007B68DB68012B06D17B4B1B6A7A4A43F000
:10197C00010313622DE07B68DB68002B0CD1764BE6
:10198C001B6A754A23F001031362734B1B6A724A7C
:10199C0023F0040313621CE07B68DB68052B0CD17D
:1019AC006D4B1B6A6C4A43F0040313626A4B1B6A4F
:1019BC00694A43F0010313620BE0674B1B6A664AEA
:1019CC0023F001031362644B1B6A634A23F0040384
:1019DC0013627B68DB68002B15D0FFF77FFB386147
:1019EC000AE0FFF77BFB02463B69D31A41F28832CF
:1019FC00934201D90323ABE0574B1B6A03F002035C
:101A0C00002BEED014E0FFF769FB38610AE0FFF71A
:101A1C0065FB02463B69D31A41F28832934201D9E5
:101A2C00032395E04C4B1B6A03F00203002BEED111
:101A3C00FB7D012B05D1484BDB69474A23F08053D2
:101A4C00D3617B68DB69002B00F08180424B5B68C3
:101A5C0003F00C03082B61D07B68DB69022B46D1A9
:101A6C003F4B00221A60FFF739FB386108E0FFF7A3
:101A7C0035FB02463B69D31A022B01D9032367E0DD
:101A8C00354B1B6803F00073002BF0D17B681B6A8D
:101A9C00B3F5803F08D1304B5B6823F400327B6890
:101AAC009B682D4913434B602B4B5B6823F47412DA
:101ABC007B68196A7B685B6A0B43274913434B604D
:101ACC00274B01221A60FFF709FB386108E0FFF78A
:101ADC0005FB02463B69D31A022B01D9032337E0DD
:101AEC001D4B1B6803F00073002BF0D02FE01C4B38
:101AFC0000221A60FFF7F2FA386108E0FFF7EEFAFD
:101B0C0002463B69D31A022B01D9032320E0124B66
:101B1C001B6803F00073002BF0D118E07B68DB69C5
:101B2C00012B01D1012313E00B4B5B68FB60FB68BD
:101B3C0003F480327B681B6A9A4206D1FB6803F47B
:101B4C0070127B685B6A9A4201D0012300E000238B
:101B5C0018461837BD4680BD00100240007000408A
:101B6C006000424280B584B000AF786039607B6819
:101B7C00002B01D10123D0E06A4B1B6803F0070353
:101B8C003A689A4210D9674B1B6823F007026549E3
:101B9C003B6813430B60634B1B6803F007033A6805
:101BAC009A4201D00123B8E07B681B6803F0020362
:101BBC00002B20D07B681B6803F00403002B05D09E
:101BCC00594B5B68584A43F4E06353607B681B686D
:101BDC0003F00803002B05D0534B5B68524A43F4C7
:101BEC0060535360504B5B6823F0F0027B689B683A
:101BFC004D4913434B607B681B6803F00103002BBA
:101C0C0040D07B685B68012B07D1474B1B6803F402
:101C1C000033002B15D101237FE07B685B68022B1E
:101C2C0007D1414B1B6803F00073002B09D1012332
:101C3C0073E03D4B1B6803F00203002B01D1012321
:101C4C006BE0394B5B6823F003027B685B683649B9
:101C5C0013434B60FFF742FAF8600AE0FFF73EFAD5
:101C6C000246FB68D31A41F28832934201D903230E
:101C7C0053E02D4B5B6803F00C027B685B689B00A8
:101C8C009A42EBD1274B1B6803F007033A689A4240
:101C9C0010D2244B1B6823F0070222493B681343E4
:101CAC000B60204B1B6803F007033A689A4201D083
:101CBC00012332E07B681B6803F00403002B08D07F
:101CCC00194B5B6823F4E0627B68DB6816491343AD
:101CDC004B607B681B6803F00803002B09D0124B88
:101CEC005B6823F460527B681B69DB000E4913436D
:101CFC004B6000F021F802460B4B5B681B0903F0AC
:101D0C000F030A49CB5C22FA03F3094A1360094B0F
:101D1C001B681846FFF7A0F9002318461037BD467C
:101D2C0080BD00BF00200240001002406826000861
:101D3C00540000205800002080B487B000AF00236E
:101D4C00FB600023BB6000237B6100237B600023CE
:101D5C003B611E4B5B68FB60FB6803F00C03042BC0
:101D6C0002D0082B03D027E0194B3B6127E0FB681E
:101D7C009B0C03F00F03174AD35C7B60FB6803F4E6
:101D8C008033002B10D0114B5B685B0C03F001030C
:101D9C00114AD35CBB607B680D4A02FB03F2BB6843
:101DAC00B2FBF3F37B6104E07B680C4A02FB03F3A8
:101DBC007B617B693B6102E0054B3B6100BF3B698A
:101DCC0018461C37BD4680BC704700BF001002404F
:101DDC0000127A00782600088826000800093D00C9
:101DEC0080B485B000AF78600A4B1B680A4AA2FB2E
:101DFC0003235B0A7A6802FB03F3FB6000BFFB68FA
:101E0C005A1EFA60002BF9D100BF00BF1437BD4633
:101E1C0080BC704754000020D34D621080B582B056
:101E2C0000AF78607B68002B01D1012341E07B6817
:101E3C0093F83D30DBB2002B06D17B68002283F88F
:101E4C003C207868FFF770F87B68022283F83D200D
:101E5C007B681A687B6804331946104600F06EFAEA
:101E6C007B68012283F846207B68012283F83E20A0
:101E7C007B68012283F83F207B68012283F8402095
:101E8C007B68012283F841207B68012283F8422081
:101E9C007B68012283F843207B68012283F844206D
:101EAC007B68012283F845207B68012283F83D2062
:101EBC00002318460837BD4680BD000080B485B0AD
:101ECC0000AF78607B6893F83D30DBB2012B01D01A
:101EDC00012335E07B68022283F83D207B681B6878
:101EEC00DA687B681B6842F00102DA607B681B6869
:101EFC00164A934209D07B681B68B3F1804F04D01B
:101F0C007B681B68124A934211D17B681B689B68E3
:101F1C0003F00703FB60FB68062B10D07B681B6883
:101F2C001A687B681B6842F001021A6007E07B6844
:101F3C001B681A687B681B6842F001021A60002358
:101F4C0018461437BD4680BC704700BF002C0140BA
:101F5C000004004080B582B000AF78607B681B68DD
:101F6C001B6903F00203022B22D17B681B68DB6820
:101F7C0003F00203022B1BD17B681B686FF002027B
:101F8C001A617B6801221A777B681B689B6903F0D6
:101F9C000303002B03D0786800F0B4F905E07868EF
:101FAC0000F0A7F9786800F0B6F97B6800221A7780
:101FBC007B681B681B6903F00403042B22D17B682C
:101FCC001B68DB6803F00403042B1BD17B681B68C4
:101FDC006FF004021A617B6802221A777B681B6817
:101FEC009B6903F44073002B03D0786800F08AF9E6
:101FFC0005E0786800F07DF9786800F08CF97B6872
:10200C0000221A777B681B681B6903F00803082BF6
:10201C0022D17B681B68DB6803F00803082B1BD1FB
:10202C007B681B686FF008021A617B6804221A77C0
:10203C007B681B68DB6903F00303002B03D0786813
:10204C0000F060F905E0786800F053F9786800F06A
:10205C0062F97B6800221A777B681B681B6903F0A6
:10206C001003102B22D17B681B68DB6803F0100374
:10207C00102B1BD17B681B686FF010021A617B68F8
:10208C0008221A777B681B68DB6903F44073002B0A
:10209C0003D0786800F036F905E0786800F029F98B
:1020AC00786800F038F97B6800221A777B681B6827
:1020BC001B6903F00103012B0ED17B681B68DB68E5
:1020CC0003F00103012B07D17B681B686FF0010241
:1020DC001A617868FEF7E6FE7B681B681B6903F0E3
:1020EC008003802B0ED17B681B68DB6803F08003B8
:1020FC00802B07D17B681B686FF080021A617868AF
:10210C0000F06BFA7B681B681B6903F04003402BE3
:10211C000ED17B681B68DB6803F04003402B07D1B2
:10212C007B681B686FF040021A61786800F0FCF85D
:10213C007B681B681B6903F02003202B0ED17B6886
:10214C001B68DB6803F02003202B07D17B681B681E
:10215C006FF020021A61786800F036FA00BF083779
:10216C00BD4680BD80B584B000AF78603960002377
:10217C00FB737B6893F83C30012B01D10223B4E054
:10218C007B68012283F83C207B68022283F83D2087
:10219C007B681B689B68BB60BB6823F07703BB60E4
:1021AC00BB6823F47F43BB607B681B68BA689A608A
:1021BC003B681B68B3F5005F3ED0B3F5005F00F2DF
:1021CC008780B3F5805F00F08680B3F5805F7FD8A1
:1021DC00702B1AD0702B7BD8602B50D0602B77D8FB
:1021EC00502B3CD0502B73D8402B58D0402B6FD851
:1021FC00302B64D0302B6BD8202B60D0202B67D8A1
:10220C00002B5CD0102B5AD062E07B6818683B68BE
:10221C0099683B685A683B68DB6800F05EF97B683C
:10222C001B689B68BB60BB6843F07703BB607B6833
:10223C001B68BA689A604FE07B6818683B689968BD
:10224C003B685A683B68DB6800F047F97B681B68A1
:10225C009A687B681B6842F480429A603CE07B6819
:10226C0018683B6859683B68DB681A4600F0BEF892
:10227C007B681B685021184600F015F92CE07B6830
:10228C0018683B6859683B68DB681A4600F0DCF854
:10229C007B681B686021184600F005F91CE07B6820
:1022AC0018683B6859683B68DB681A4600F09EF872
:1022BC007B681B684021184600F0F5F80CE07B6841
:1022CC001A683B681B681946104600F0ECF803E0EE
:1022DC000123FB7300E000BF7B68012283F83D20E3
:1022EC007B68002283F83C20FB7B18461037BD46E8
:1022FC0080BD80B483B000AF786000BF0C37BD46A2
:10230C0080BC704780B483B000AF786000BF0C37DE
:10231C00BD4680BC704780B483B000AF786000BF0E
:10232C000C37BD4680BC704780B483B000AF78607A
:10233C0000BF0C37BD4680BC7047000080B485B030
:10234C0000AF786039607B681B68FB607B68254A4E
:10235C00934207D07B68B3F1804F03D07B68224A4D
:10236C00934208D1FB6823F07003FB603B685B6809
:10237C00FA681343FB607B681A4A934207D07B6868
:10238C00B3F1804F03D07B68174A934208D1FB68A6
:10239C0023F44073FB603B68DB68FA681343FB6013
:1023AC00FB6823F080023B685B691343FB607B682E
:1023BC00FA681A603B689A687B68DA623B681A684C
:1023CC007B689A627B68074A934203D13B681A691F
:1023DC007B681A637B6801225A6100BF1437BD46C3
:1023EC0080BC7047002C01400004004080B487B0D2
:1023FC0000AFF860B9607A60FB681B6A7B61FB68B0
:10240C001B6A23F00102FB681A62FB689B693B6143
:10241C003B6923F0F0033B617B681B013A69134372
:10242C003B617B6923F00A037B617A69BB681343C8
:10243C007B61FB683A699A61FB687A691A6200BF32
:10244C001C37BD4680BC704780B487B000AFF860C5
:10245C00B9607A60FB681B6A7B61FB681B6A23F0BE
:10246C001002FB681A62FB689B693B613B6923F4B1
:10247C0070433B617B681B033A6913433B617B6987
:10248C0023F0A0037B61BB681B017A6913437B615A
:10249C00FB683A699A61FB687A691A6200BF1C375B
:1024AC00BD4680BC704780B485B000AF78603960A1
:1024BC007B689B68FB60FB6823F07003FB603A68E9
:1024CC00FB68134343F00703FB607B68FA689A6070
:1024DC0000BF1437BD4680BC704780B487B000AFD6
:1024EC00F860B9607A603B60FB689B687B617B69D4
:1024FC0023F47F437B613B681A027B681A43BB68F9
:10250C0013437A6913437B61FB687A699A6000BF55
:10251C001C37BD4680BC704780B485B000AF786076
:10252C0039607B6893F83C30012B01D1022341E0E8
:10253C007B68012283F83C207B68022283F83D20D3
:10254C007B681B685B68FB607B681B689B68BB6077
:10255C00FB6823F07003FB603B681B68FA6813434D
:10256C00FB607B681B68FA685A607B681B68144ABE
:10257C00934209D07B681B68B3F1804F04D07B6811
:10258C001B68104A93420CD1BB6823F08003BB60DC
:10259C003B685B68BA681343BB607B681B68BA68AE
:1025AC009A607B68012283F83D207B68002283F8C7
:1025BC003C20002318461437BD4680BC704700BF32
:1025CC00002C01400004004080B483B000AF786060
:1025DC0000BF0C37BD4680BC704780B483B000AFE1
:1025EC00786000BF0C37BD4680BC704770B50026C4
:1025FC000C4D0D4C641BA410A64209D100F022F81E
:10260C0000260A4D0A4C641BA410A64205D170BDCD
:10261C0055F8043B98470136EEE755F8043B9847CC
:10262C000136F2E78C2600088C2600088C26000860
:10263C009026000803460244934200D1704703F8E9
:10264C00011BF9E7F8B500BFF8BC08BC9E46704703
:0C265C00F8B500BFF8BC08BC9E467047F3
:10266800000000000000000001020304060708093A
:1026780002030405060708090A0B0C0D0E0F1010BB
:04268800010200004B
:04268C003101000810
:042690000D01000830
:10269400307830300000000030783636000000001A
:1026A400307866660000000030786666000000003E
:1026B400307866660000000030783765000000005E
:1026C40030783363000000003078313800000000B7
:1026D40001000000020000000300000000000000F0
:1026E4000A0000000024F4001000000001000000B3
:0400000508000FEDF3
:00000001FF
